:0400000080EF7EF01F
:10FCB700800F810F820F830F840F890F8A0F8B0F9D
:10FCC7008C0F8D0F920F930F940F950F960F920A2B
:10FCD70082210E2C6E000E2D6E95EC7EF0200E2CE0
:10FCE7006E000E2D6E95EC7EF01F0E2C6E000E2D05
:10FCF7006E95EC7EF000EF00F0B70EF66EFC0EF797
:10FD07006E000EF86E00EE01F010EE21F00900F51E
:10FD1700CFEEFFE550E150FAE1000EF86E00016CFE
:10FD2700EF7EF02C502D10D8B49CEF7EF09EEF7E26
:10FD3700F0AFEF7EF02CC0D9FF2DC0DAFFDF30E83F
:10FD470032E832070B2E6E070E2E64ADEF7EF0AF52
:10FD5700EF7EF0B1EF7EF0C7EF7EF02CC022F02DE2
:10FD6700C023F05EEC7FF02F6E2CC022F02DC02355
:10FD7700F02CC0D9FF2DC0DAFF000EDFBE010E2424
:10FD87006EC8EC7EF02F6E1200010E2B6E225023F0
:10FD970010D8B4D1EF7EF0D3EF7EF0E4EF7EF022FF
:10FDA700C0D9FF23C0DAFFDF30E832E832070B257E
:10FDB7006E070E2564E2EF7EF0E4EF7EF047EF7FFB
:10FDC700F0000E2B6E5CEF7FF022C0D9FF23C0DA64
:10FDD700FFDF30E832E832070B256E010E266E256D
:10FDE7002AF8EF7EF0D8902636252EF6EF7EF026FD
:10FDF70050FF0A276E22C0D9FF23C0DAFFDF500762
:10FE07000B286E2850020D0B0EF324D96E000EF44A
:10FE170020DA6EDECF29F0DDCF2AF029C0D9FF2AFC
:10FE2700C0DAFF2750DF165CEF7FF022C0D9FF232F
:10FE3700C0DAFFDF30E832E832070B256E010E2605
:10FE47006E252A29EF7FF0D8902636252E27EF7FBB
:10FE5700F022C0D9FF23C0DAFFDF50070B276E2738
:10FE670050020D0B0EF324D96E000EF420DA6EDE6D
:10FE7700CF28F0DDCF29F028C0D9FF29C0DAFF2627
:10FE870050DF125CEF7FF02450256E266A26500063
:10FE97000AD8B451EF7FF0E4EF7EF02550000AD87E
:10FEA700B4E8EF7EF0010AD8B419EF7FF0E4EF7EF3
:10FEB700F02B501200010E2A6E22502310D8B4677F
:10FEC700EF7FF069EF7FF07AEF7FF022C0D9FF2351
:10FED700C0DAFFDF30E832E832070B246E070E2462
:10FEE7006478EF7FF07AEF7FF0DDEF7FF0000E2A86
:10FEF7006EFEEF7FF022C0D9FF23C0DAFFDF30E8C4
:10FF070032E832070B246E010E256E242A8EEF7F0E
:10FF1700F0D8902536242E8CEF7FF02550FF0A2647
:10FF27006E22C0D9FF23C0DAFFDF50070B276E27E9
:10FF370050020D150EF324D96E000EF420DA6EDE92
:10FF4700CF28F0DDCF29F028C0D9FF29C0DAFF2656
:10FF570050DF16FEEF7FF022C0D9FF23C0DAFFDFA4
:10FF670030E832E832070B246E010E256E242ABFD3
:10FF7700EF7FF0D8902536242EBDEF7FF022C0D931
:10FF8700FF23C0DAFFDF50070B266E2650020D1540
:10FF97000EF324D96E000EF420DA6EDECF27F0DDE3
:10FFA700CF28F027C0D9FF28C0DAFF2550DF12FE7F
:10FFB700EF7FF022C0D9FF23C0DAFFDFBCE6EF7F77
:10FFC700F0E9EF7FF0010EEAEF7FF0000E246E25D7
:10FFD7006A2550000AD8B4F3EF7FF07AEF7FF02458
:10FFE70050000AD8B47EEF7FF0010AD8B4AFEF7F94
:09FFF700F07AEF7FF02A501200AD
:020000040020DA
:08000000FFFFFFFFFFFFFFFF00
:020000040030CA
:0E000000FF02091EFF8181FF0FC00FE00F40BD
:00000001FF
